{
  "_format": "hh-sol-artifact-1",
  "contractName": "LightweightMedicalContract",
  "sourceName": "contracts/LightweightMedicalContract.sol",
  "abi": [
    {
      "inputs": [],
      "stateMutability": "nonpayable",
      "type": "constructor"
    },
    {
      "inputs": [
        {
          "internalType": "uint256",
          "name": "_id",
          "type": "uint256"
        },
        {
          "internalType": "string",
          "name": "_ipfs_hash",
          "type": "string"
        },
        {
          "internalType": "string",
          "name": "_name",
          "type": "string"
        },
        {
          "internalType": "string",
          "name": "_credentials",
          "type": "string"
        },
        {
          "internalType": "string",
          "name": "_gender",
          "type": "string"
        },
        {
          "internalType": "string",
          "name": "_hospitalName",
          "type": "string"
        },
        {
          "internalType": "string",
          "name": "_country",
          "type": "string"
        },
        {
          "internalType": "string",
          "name": "_specialty",
          "type": "string"
        }
      ],
      "name": "addDoctor",
      "outputs": [],
      "stateMutability": "nonpayable",
      "type": "function"
    },
    {
      "inputs": [
        {
          "internalType": "uint256",
          "name": "_id",
          "type": "uint256"
        },
        {
          "internalType": "string",
          "name": "_ipfs_hash",
          "type": "string"
        },
        {
          "internalType": "uint256",
          "name": "_age",
          "type": "uint256"
        },
        {
          "internalType": "uint256",
          "name": "_highBP",
          "type": "uint256"
        },
        {
          "internalType": "uint256",
          "name": "_highChol",
          "type": "uint256"
        },
        {
          "internalType": "uint256",
          "name": "_cholCheck",
          "type": "uint256"
        },
        {
          "internalType": "uint256",
          "name": "_BMI",
          "type": "uint256"
        },
        {
          "internalType": "uint256",
          "name": "_smoker",
          "type": "uint256"
        },
        {
          "internalType": "uint256",
          "name": "_stroke",
          "type": "uint256"
        }
      ],
      "name": "addPatient",
      "outputs": [],
      "stateMutability": "nonpayable",
      "type": "function"
    },
    {
      "inputs": [],
      "name": "admin",
      "outputs": [
        {
          "internalType": "address",
          "name": "",
          "type": "address"
        }
      ],
      "stateMutability": "view",
      "type": "function"
    },
    {
      "inputs": [
        {
          "internalType": "uint256",
          "name": "doctorId",
          "type": "uint256"
        }
      ],
      "name": "deleteDoctor",
      "outputs": [],
      "stateMutability": "nonpayable",
      "type": "function"
    },
    {
      "inputs": [
        {
          "internalType": "uint256",
          "name": "patientId",
          "type": "uint256"
        }
      ],
      "name": "deletePatient",
      "outputs": [],
      "stateMutability": "nonpayable",
      "type": "function"
    },
    {
      "inputs": [],
      "name": "doctorCount",
      "outputs": [
        {
          "internalType": "uint256",
          "name": "",
          "type": "uint256"
        }
      ],
      "stateMutability": "view",
      "type": "function"
    },
    {
      "inputs": [
        {
          "internalType": "uint256",
          "name": "",
          "type": "uint256"
        }
      ],
      "name": "doctors",
      "outputs": [
        {
          "internalType": "uint256",
          "name": "id",
          "type": "uint256"
        },
        {
          "internalType": "bytes32",
          "name": "dataHash",
          "type": "bytes32"
        },
        {
          "internalType": "string",
          "name": "ipfs_hash",
          "type": "string"
        }
      ],
      "stateMutability": "view",
      "type": "function"
    },
    {
      "inputs": [
        {
          "internalType": "uint256",
          "name": "doctorId",
          "type": "uint256"
        }
      ],
      "name": "getDoctorHash",
      "outputs": [
        {
          "internalType": "bytes32",
          "name": "",
          "type": "bytes32"
        }
      ],
      "stateMutability": "view",
      "type": "function"
    },
    {
      "inputs": [
        {
          "internalType": "uint256",
          "name": "patientId",
          "type": "uint256"
        }
      ],
      "name": "getPatientHash",
      "outputs": [
        {
          "internalType": "bytes32",
          "name": "",
          "type": "bytes32"
        }
      ],
      "stateMutability": "view",
      "type": "function"
    },
    {
      "inputs": [],
      "name": "patientCount",
      "outputs": [
        {
          "internalType": "uint256",
          "name": "",
          "type": "uint256"
        }
      ],
      "stateMutability": "view",
      "type": "function"
    },
    {
      "inputs": [
        {
          "internalType": "uint256",
          "name": "",
          "type": "uint256"
        }
      ],
      "name": "patients",
      "outputs": [
        {
          "internalType": "uint256",
          "name": "id",
          "type": "uint256"
        },
        {
          "internalType": "bytes32",
          "name": "dataHash",
          "type": "bytes32"
        },
        {
          "internalType": "string",
          "name": "ipfs_hash",
          "type": "string"
        }
      ],
      "stateMutability": "view",
      "type": "function"
    },
    {
      "inputs": [
        {
          "internalType": "uint256",
          "name": "patientId",
          "type": "uint256"
        },
        {
          "internalType": "bytes32",
          "name": "computedHash",
          "type": "bytes32"
        }
      ],
      "name": "verifyPatientData",
      "outputs": [
        {
          "internalType": "bool",
          "name": "",
          "type": "bool"
        }
      ],
      "stateMutability": "view",
      "type": "function"
    }
  ],
  "bytecode": "0x60a0604052348015600f57600080fd5b503373ffffffffffffffffffffffffffffffffffffffff1660808173ffffffffffffffffffffffffffffffffffffffff168152505060805161162561005f600039600061085501526116256000f3fe608060405234801561001057600080fd5b50600436106100b45760003560e01c806378522bc41161007157806378522bc41461019f5780637eb36f62146101bd57806393119a83146101ed578063a0303c411461021f578063b65196391461023d578063f851a44014610259576100b4565b8063114db1fd146100b95780633505f571146100d5578063425ea6ea1461010557806344715b8a1461012157806367e57482146101515780636efb1b841461016d575b600080fd5b6100d360048036038101906100ce9190610963565b610277565b005b6100ef60048036038101906100ea91906109c6565b610310565b6040516100fc9190610a21565b60405180910390f35b61011f600480360381019061011a9190610b82565b61037a565b005b61013b60048036038101906101369190610963565b61047a565b6040516101489190610d0b565b60405180910390f35b61016b60048036038101906101669190610963565b6104e1565b005b61018760048036038101906101829190610963565b610579565b60405161019693929190610db4565b60405180910390f35b6101a761062b565b6040516101b49190610df2565b60405180910390f35b6101d760048036038101906101d29190610963565b610631565b6040516101e49190610d0b565b60405180910390f35b61020760048036038101906102029190610963565b610699565b60405161021693929190610db4565b60405180910390f35b61022761074b565b6040516102349190610df2565b60405180910390f35b61025760048036038101906102529190610e0d565b610751565b005b610261610853565b60405161026e9190610f34565b60405180910390f35b61028081610877565b6102bf576040517f08c379a00000000000000000000000000000000000000000000000000000000081526004016102b690610f9b565b60405180910390fd5b6001600082815260200190815260200160002060008082016000905560018201600090556002820160006102f391906108bc565b50506003600081548092919061030890610fea565b919050555050565b600061031b8361089a565b61035a576040517f08c379a00000000000000000000000000000000000000000000000000000000081526004016103519061105f565b60405180910390fd5b816000808581526020019081526020016000206001015414905092915050565b61038388610877565b156103c3576040517f08c379a00000000000000000000000000000000000000000000000000000000081526004016103ba906110cb565b60405180910390fd5b600360008154809291906103d6906110eb565b9190505550600088888888888888886040516020016103fc989796959493929190611190565b60405160208183030381529060405280519060200120905060405180606001604052808a815260200182815260200189815250600160008b81526020019081526020016000206000820151816000015560208201518160010155604082015181600201908161046b9190611412565b50905050505050505050505050565b60006104858261089a565b6104c4576040517f08c379a00000000000000000000000000000000000000000000000000000000081526004016104bb9061105f565b60405180910390fd5b600080838152602001908152602001600020600101549050919050565b6104ea8161089a565b610529576040517f08c379a00000000000000000000000000000000000000000000000000000000081526004016105209061105f565b60405180910390fd5b600080828152602001908152602001600020600080820160009055600182016000905560028201600061055c91906108bc565b50506002600081548092919061057190610fea565b919050555050565b60016020528060005260406000206000915090508060000154908060010154908060020180546105a890611235565b80601f01602080910402602001604051908101604052809291908181526020018280546105d490611235565b80156106215780601f106105f657610100808354040283529160200191610621565b820191906000526020600020905b81548152906001019060200180831161060457829003601f168201915b5050505050905083565b60035481565b600061063c82610877565b61067b576040517f08c379a000000000000000000000000000000000000000000000000000000000815260040161067290610f9b565b60405180910390fd5b60016000838152602001908152602001600020600101549050919050565b60006020528060005260406000206000915090508060000154908060010154908060020180546106c890611235565b80601f01602080910402602001604051908101604052809291908181526020018280546106f490611235565b80156107415780601f1061071657610100808354040283529160200191610741565b820191906000526020600020905b81548152906001019060200180831161072457829003601f168201915b5050505050905083565b60025481565b61075a8961089a565b1561079a576040517f08c379a000000000000000000000000000000000000000000000000000000000815260040161079190611530565b60405180910390fd5b600260008154809291906107ad906110eb565b919050555060008989898989898989896040516020016107d599989796959493929190611550565b60405160208183030381529060405280519060200120905060405180606001604052808b81526020018281526020018a8152506000808c8152602001908152602001600020600082015181600001556020820151816001015560408201518160020190816108439190611412565b5090505050505050505050505050565b7f000000000000000000000000000000000000000000000000000000000000000081565b600080600160008481526020019081526020016000206000015414159050919050565b6000806000808481526020019081526020016000206000015414159050919050565b5080546108c890611235565b6000825580601f106108da57506108f9565b601f0160209004906000526020600020908101906108f891906108fc565b5b50565b5b808211156109155760008160009055506001016108fd565b5090565b6000604051905090565b600080fd5b600080fd5b6000819050919050565b6109408161092d565b811461094b57600080fd5b50565b60008135905061095d81610937565b92915050565b60006020828403121561097957610978610923565b5b60006109878482850161094e565b91505092915050565b6000819050919050565b6109a381610990565b81146109ae57600080fd5b50565b6000813590506109c08161099a565b92915050565b600080604083850312156109dd576109dc610923565b5b60006109eb8582860161094e565b92505060206109fc858286016109b1565b9150509250929050565b60008115159050919050565b610a1b81610a06565b82525050565b6000602082019050610a366000830184610a12565b92915050565b600080fd5b600080fd5b6000601f19601f8301169050919050565b7f4e487b7100000000000000000000000000000000000000000000000000000000600052604160045260246000fd5b610a8f82610a46565b810181811067ffffffffffffffff82111715610aae57610aad610a57565b5b80604052505050565b6000610ac1610919565b9050610acd8282610a86565b919050565b600067ffffffffffffffff821115610aed57610aec610a57565b5b610af682610a46565b9050602081019050919050565b82818337600083830152505050565b6000610b25610b2084610ad2565b610ab7565b905082815260208101848484011115610b4157610b40610a41565b5b610b4c848285610b03565b509392505050565b600082601f830112610b6957610b68610a3c565b5b8135610b79848260208601610b12565b91505092915050565b600080600080600080600080610100898b031215610ba357610ba2610923565b5b6000610bb18b828c0161094e565b985050602089013567ffffffffffffffff811115610bd257610bd1610928565b5b610bde8b828c01610b54565b975050604089013567ffffffffffffffff811115610bff57610bfe610928565b5b610c0b8b828c01610b54565b965050606089013567ffffffffffffffff811115610c2c57610c2b610928565b5b610c388b828c01610b54565b955050608089013567ffffffffffffffff811115610c5957610c58610928565b5b610c658b828c01610b54565b94505060a089013567ffffffffffffffff811115610c8657610c85610928565b5b610c928b828c01610b54565b93505060c089013567ffffffffffffffff811115610cb357610cb2610928565b5b610cbf8b828c01610b54565b92505060e089013567ffffffffffffffff811115610ce057610cdf610928565b5b610cec8b828c01610b54565b9150509295985092959890939650565b610d0581610990565b82525050565b6000602082019050610d206000830184610cfc565b92915050565b610d2f8161092d565b82525050565b600081519050919050565b600082825260208201905092915050565b60005b83811015610d6f578082015181840152602081019050610d54565b60008484015250505050565b6000610d8682610d35565b610d908185610d40565b9350610da0818560208601610d51565b610da981610a46565b840191505092915050565b6000606082019050610dc96000830186610d26565b610dd66020830185610cfc565b8181036040830152610de88184610d7b565b9050949350505050565b6000602082019050610e076000830184610d26565b92915050565b60008060008060008060008060006101208a8c031215610e3057610e2f610923565b5b6000610e3e8c828d0161094e565b99505060208a013567ffffffffffffffff811115610e5f57610e5e610928565b5b610e6b8c828d01610b54565b9850506040610e7c8c828d0161094e565b9750506060610e8d8c828d0161094e565b9650506080610e9e8c828d0161094e565b95505060a0610eaf8c828d0161094e565b94505060c0610ec08c828d0161094e565b93505060e0610ed18c828d0161094e565b925050610100610ee38c828d0161094e565b9150509295985092959850929598565b600073ffffffffffffffffffffffffffffffffffffffff82169050919050565b6000610f1e82610ef3565b9050919050565b610f2e81610f13565b82525050565b6000602082019050610f496000830184610f25565b92915050565b7f446f63746f7220646f6573206e6f742065786973740000000000000000000000600082015250565b6000610f85601583610d40565b9150610f9082610f4f565b602082019050919050565b60006020820190508181036000830152610fb481610f78565b9050919050565b7f4e487b7100000000000000000000000000000000000000000000000000000000600052601160045260246000fd5b6000610ff58261092d565b91506000820361100857611007610fbb565b5b600182039050919050565b7f50617469656e7420646f6573206e6f7420657869737400000000000000000000600082015250565b6000611049601683610d40565b915061105482611013565b602082019050919050565b600060208201905081810360008301526110788161103c565b9050919050565b7f446f63746f7220616c7265616479207265676973746572656400000000000000600082015250565b60006110b5601983610d40565b91506110c08261107f565b602082019050919050565b600060208201905081810360008301526110e4816110a8565b9050919050565b60006110f68261092d565b91507fffffffffffffffffffffffffffffffffffffffffffffffffffffffffffffffff820361112857611127610fbb565b5b600182019050919050565b6000819050919050565b61114e6111498261092d565b611133565b82525050565b600081905092915050565b600061116a82610d35565b6111748185611154565b9350611184818560208601610d51565b80840191505092915050565b600061119c828b61113d565b6020820191506111ac828a61115f565b91506111b8828961115f565b91506111c4828861115f565b91506111d0828761115f565b91506111dc828661115f565b91506111e8828561115f565b91506111f4828461115f565b91508190509998505050505050505050565b7f4e487b7100000000000000000000000000000000000000000000000000000000600052602260045260246000fd5b6000600282049050600182168061124d57607f821691505b6020821081036112605761125f611206565b5b50919050565b60008190508160005260206000209050919050565b60006020601f8301049050919050565b600082821b905092915050565b6000600883026112c87fffffffffffffffffffffffffffffffffffffffffffffffffffffffffffffffff8261128b565b6112d2868361128b565b95508019841693508086168417925050509392505050565b6000819050919050565b600061130f61130a6113058461092d565b6112ea565b61092d565b9050919050565b6000819050919050565b611329836112f4565b61133d61133582611316565b848454611298565b825550505050565b600090565b611352611345565b61135d818484611320565b505050565b5b818110156113815761137660008261134a565b600181019050611363565b5050565b601f8211156113c65761139781611266565b6113a08461127b565b810160208510156113af578190505b6113c36113bb8561127b565b830182611362565b50505b505050565b600082821c905092915050565b60006113e9600019846008026113cb565b1980831691505092915050565b600061140283836113d8565b9150826002028217905092915050565b61141b82610d35565b67ffffffffffffffff81111561143457611433610a57565b5b61143e8254611235565b611449828285611385565b600060209050601f83116001811461147c576000841561146a578287015190505b61147485826113f6565b8655506114dc565b601f19841661148a86611266565b60005b828110156114b25784890151825560018201915060208501945060208101905061148d565b868310156114cf57848901516114cb601f8916826113d8565b8355505b6001600288020188555050505b505050505050565b7f50617469656e7420616c72656164792065786973747300000000000000000000600082015250565b600061151a601683610d40565b9150611525826114e4565b602082019050919050565b600060208201905081810360008301526115498161150d565b9050919050565b600061155c828c61113d565b60208201915061156c828b61115f565b9150611578828a61113d565b602082019150611588828961113d565b602082019150611598828861113d565b6020820191506115a8828761113d565b6020820191506115b8828661113d565b6020820191506115c8828561113d565b6020820191506115d8828461113d565b6020820191508190509a995050505050505050505056fea264697066735822122097b5d3efccec161824e6de48149376a43300674f332effc0bd0ad6912aa59aef64736f6c634300081c0033",
  "linkReferences": {},
  "deployedLinkReferences": {}
}