{
  "_format": "hh-sol-artifact-1",
  "contractName": "LightweightMedicalContract",
  "sourceName": "contracts/LightweightMedicalContract.sol",
  "abi": [
    {
      "inputs": [],
      "stateMutability": "nonpayable",
      "type": "constructor"
    },
    {
      "inputs": [
        {
          "internalType": "uint256",
          "name": "_id",
          "type": "uint256"
        },
        {
          "internalType": "string",
          "name": "_name",
          "type": "string"
        },
        {
          "internalType": "string",
          "name": "_credentials",
          "type": "string"
        },
        {
          "internalType": "string",
          "name": "_gender",
          "type": "string"
        },
        {
          "internalType": "string",
          "name": "_hospitalName",
          "type": "string"
        },
        {
          "internalType": "string",
          "name": "_country",
          "type": "string"
        },
        {
          "internalType": "string",
          "name": "_specialty",
          "type": "string"
        }
      ],
      "name": "addDoctor",
      "outputs": [],
      "stateMutability": "nonpayable",
      "type": "function"
    },
    {
      "inputs": [
        {
          "internalType": "uint256",
          "name": "_id",
          "type": "uint256"
        },
        {
          "internalType": "uint256",
          "name": "_age",
          "type": "uint256"
        },
        {
          "internalType": "uint256",
          "name": "_highBP",
          "type": "uint256"
        },
        {
          "internalType": "uint256",
          "name": "_highChol",
          "type": "uint256"
        },
        {
          "internalType": "uint256",
          "name": "_cholCheck",
          "type": "uint256"
        },
        {
          "internalType": "uint256",
          "name": "_BMI",
          "type": "uint256"
        },
        {
          "internalType": "uint256",
          "name": "_smoker",
          "type": "uint256"
        },
        {
          "internalType": "uint256",
          "name": "_stroke",
          "type": "uint256"
        }
      ],
      "name": "addPatient",
      "outputs": [],
      "stateMutability": "nonpayable",
      "type": "function"
    },
    {
      "inputs": [],
      "name": "admin",
      "outputs": [
        {
          "internalType": "address",
          "name": "",
          "type": "address"
        }
      ],
      "stateMutability": "view",
      "type": "function"
    },
    {
      "inputs": [
        {
          "internalType": "uint256",
          "name": "doctorId",
          "type": "uint256"
        }
      ],
      "name": "deleteDoctor",
      "outputs": [],
      "stateMutability": "nonpayable",
      "type": "function"
    },
    {
      "inputs": [
        {
          "internalType": "uint256",
          "name": "patientId",
          "type": "uint256"
        }
      ],
      "name": "deletePatient",
      "outputs": [],
      "stateMutability": "nonpayable",
      "type": "function"
    },
    {
      "inputs": [],
      "name": "doctorCount",
      "outputs": [
        {
          "internalType": "uint256",
          "name": "",
          "type": "uint256"
        }
      ],
      "stateMutability": "view",
      "type": "function"
    },
    {
      "inputs": [
        {
          "internalType": "uint256",
          "name": "",
          "type": "uint256"
        }
      ],
      "name": "doctors",
      "outputs": [
        {
          "internalType": "uint256",
          "name": "id",
          "type": "uint256"
        },
        {
          "internalType": "bytes32",
          "name": "dataHash",
          "type": "bytes32"
        }
      ],
      "stateMutability": "view",
      "type": "function"
    },
    {
      "inputs": [
        {
          "internalType": "uint256",
          "name": "doctorId",
          "type": "uint256"
        }
      ],
      "name": "getDoctorHash",
      "outputs": [
        {
          "internalType": "bytes32",
          "name": "",
          "type": "bytes32"
        }
      ],
      "stateMutability": "view",
      "type": "function"
    },
    {
      "inputs": [
        {
          "internalType": "uint256",
          "name": "patientId",
          "type": "uint256"
        }
      ],
      "name": "getPatientHash",
      "outputs": [
        {
          "internalType": "bytes32",
          "name": "",
          "type": "bytes32"
        }
      ],
      "stateMutability": "view",
      "type": "function"
    },
    {
      "inputs": [],
      "name": "patientCount",
      "outputs": [
        {
          "internalType": "uint256",
          "name": "",
          "type": "uint256"
        }
      ],
      "stateMutability": "view",
      "type": "function"
    },
    {
      "inputs": [
        {
          "internalType": "uint256",
          "name": "",
          "type": "uint256"
        }
      ],
      "name": "patients",
      "outputs": [
        {
          "internalType": "uint256",
          "name": "id",
          "type": "uint256"
        },
        {
          "internalType": "bytes32",
          "name": "dataHash",
          "type": "bytes32"
        }
      ],
      "stateMutability": "view",
      "type": "function"
    },
    {
      "inputs": [
        {
          "internalType": "uint256",
          "name": "patientId",
          "type": "uint256"
        },
        {
          "internalType": "bytes32",
          "name": "computedHash",
          "type": "bytes32"
        }
      ],
      "name": "verifyPatientData",
      "outputs": [
        {
          "internalType": "bool",
          "name": "",
          "type": "bool"
        }
      ],
      "stateMutability": "view",
      "type": "function"
    }
  ],
  "bytecode": "0x60a0604052348015600f57600080fd5b503373ffffffffffffffffffffffffffffffffffffffff1660808173ffffffffffffffffffffffffffffffffffffffff16815250506080516110a661005f60003960006106d901526110a66000f3fe608060405234801561001057600080fd5b50600436106100b45760003560e01c806378522bc41161007157806378522bc41461019e5780637eb36f62146101bc57806393119a83146101ec57806393e91dca1461021d578063a0303c4114610239578063f851a44014610257576100b4565b8063114db1fd146100b9578063300b8459146100d55780633505f571146100f157806344715b8a1461012157806367e57482146101515780636efb1b841461016d575b600080fd5b6100d360048036038101906100ce919061078a565b610275565b005b6100ef60048036038101906100ea91906108fd565b6102fe565b005b61010b60048036038101906101069190610a7d565b6103df565b6040516101189190610ad8565b60405180910390f35b61013b6004803603810190610136919061078a565b610449565b6040516101489190610b02565b60405180910390f35b61016b6004803603810190610166919061078a565b6104b0565b005b6101876004803603810190610182919061078a565b610538565b604051610195929190610b2c565b60405180910390f35b6101a661055c565b6040516101b39190610b55565b60405180910390f35b6101d660048036038101906101d1919061078a565b610562565b6040516101e39190610b02565b60405180910390f35b6102066004803603810190610201919061078a565b6105ca565b604051610214929190610b2c565b60405180910390f35b61023760048036038101906102329190610b70565b6105ee565b005b6102416106d1565b60405161024e9190610b55565b60405180910390f35b61025f6106d7565b60405161026c9190610c67565b60405180910390f35b61027e816106fb565b6102bd576040517f08c379a00000000000000000000000000000000000000000000000000000000081526004016102b490610cdf565b60405180910390fd5b6001600082815260200190815260200160002060008082016000905560018201600090555050600360008154809291906102f690610d2e565b919050555050565b610307876106fb565b15610347576040517f08c379a000000000000000000000000000000000000000000000000000000000815260040161033e90610da3565b60405180910390fd5b6003600081548092919061035a90610dc3565b919050555060008787878787878760405160200161037e9796959493929190610e9d565b604051602081830303815290604052805190602001209050604051806040016040528089815260200182815250600160008a815260200190815260200160002060008201518160000155602082015181600101559050505050505050505050565b60006103ea8361071e565b610429576040517f08c379a000000000000000000000000000000000000000000000000000000000815260040161042090610f52565b60405180910390fd5b816000808581526020019081526020016000206001015414905092915050565b60006104548261071e565b610493576040517f08c379a000000000000000000000000000000000000000000000000000000000815260040161048a90610f52565b60405180910390fd5b600080838152602001908152602001600020600101549050919050565b6104b98161071e565b6104f8576040517f08c379a00000000000000000000000000000000000000000000000000000000081526004016104ef90610f52565b60405180910390fd5b600080828152602001908152602001600020600080820160009055600182016000905550506002600081548092919061053090610d2e565b919050555050565b60016020528060005260406000206000915090508060000154908060010154905082565b60035481565b600061056d826106fb565b6105ac576040517f08c379a00000000000000000000000000000000000000000000000000000000081526004016105a390610cdf565b60405180910390fd5b60016000838152602001908152602001600020600101549050919050565b60006020528060005260406000206000915090508060000154908060010154905082565b6105f78861071e565b15610637576040517f08c379a000000000000000000000000000000000000000000000000000000000815260040161062e90610fbe565b60405180910390fd5b6002600081548092919061064a90610dc3565b919050555060008888888888888888604051602001610670989796959493929190610fde565b60405160208183030381529060405280519060200120905060405180604001604052808a8152602001828152506000808b81526020019081526020016000206000820151816000015560208201518160010155905050505050505050505050565b60025481565b7f000000000000000000000000000000000000000000000000000000000000000081565b600080600160008481526020019081526020016000206000015414159050919050565b6000806000808481526020019081526020016000206000015414159050919050565b6000604051905090565b600080fd5b600080fd5b6000819050919050565b61076781610754565b811461077257600080fd5b50565b6000813590506107848161075e565b92915050565b6000602082840312156107a05761079f61074a565b5b60006107ae84828501610775565b91505092915050565b600080fd5b600080fd5b6000601f19601f8301169050919050565b7f4e487b7100000000000000000000000000000000000000000000000000000000600052604160045260246000fd5b61080a826107c1565b810181811067ffffffffffffffff82111715610829576108286107d2565b5b80604052505050565b600061083c610740565b90506108488282610801565b919050565b600067ffffffffffffffff821115610868576108676107d2565b5b610871826107c1565b9050602081019050919050565b82818337600083830152505050565b60006108a061089b8461084d565b610832565b9050828152602081018484840111156108bc576108bb6107bc565b5b6108c784828561087e565b509392505050565b600082601f8301126108e4576108e36107b7565b5b81356108f484826020860161088d565b91505092915050565b600080600080600080600060e0888a03121561091c5761091b61074a565b5b600061092a8a828b01610775565b975050602088013567ffffffffffffffff81111561094b5761094a61074f565b5b6109578a828b016108cf565b965050604088013567ffffffffffffffff8111156109785761097761074f565b5b6109848a828b016108cf565b955050606088013567ffffffffffffffff8111156109a5576109a461074f565b5b6109b18a828b016108cf565b945050608088013567ffffffffffffffff8111156109d2576109d161074f565b5b6109de8a828b016108cf565b93505060a088013567ffffffffffffffff8111156109ff576109fe61074f565b5b610a0b8a828b016108cf565b92505060c088013567ffffffffffffffff811115610a2c57610a2b61074f565b5b610a388a828b016108cf565b91505092959891949750929550565b6000819050919050565b610a5a81610a47565b8114610a6557600080fd5b50565b600081359050610a7781610a51565b92915050565b60008060408385031215610a9457610a9361074a565b5b6000610aa285828601610775565b9250506020610ab385828601610a68565b9150509250929050565b60008115159050919050565b610ad281610abd565b82525050565b6000602082019050610aed6000830184610ac9565b92915050565b610afc81610a47565b82525050565b6000602082019050610b176000830184610af3565b92915050565b610b2681610754565b82525050565b6000604082019050610b416000830185610b1d565b610b4e6020830184610af3565b9392505050565b6000602082019050610b6a6000830184610b1d565b92915050565b600080600080600080600080610100898b031215610b9157610b9061074a565b5b6000610b9f8b828c01610775565b9850506020610bb08b828c01610775565b9750506040610bc18b828c01610775565b9650506060610bd28b828c01610775565b9550506080610be38b828c01610775565b94505060a0610bf48b828c01610775565b93505060c0610c058b828c01610775565b92505060e0610c168b828c01610775565b9150509295985092959890939650565b600073ffffffffffffffffffffffffffffffffffffffff82169050919050565b6000610c5182610c26565b9050919050565b610c6181610c46565b82525050565b6000602082019050610c7c6000830184610c58565b92915050565b600082825260208201905092915050565b7f446f63746f7220646f6573206e6f742065786973740000000000000000000000600082015250565b6000610cc9601583610c82565b9150610cd482610c93565b602082019050919050565b60006020820190508181036000830152610cf881610cbc565b9050919050565b7f4e487b7100000000000000000000000000000000000000000000000000000000600052601160045260246000fd5b6000610d3982610754565b915060008203610d4c57610d4b610cff565b5b600182039050919050565b7f446f63746f7220616c7265616479207265676973746572656400000000000000600082015250565b6000610d8d601983610c82565b9150610d9882610d57565b602082019050919050565b60006020820190508181036000830152610dbc81610d80565b9050919050565b6000610dce82610754565b91507fffffffffffffffffffffffffffffffffffffffffffffffffffffffffffffffff8203610e0057610dff610cff565b5b600182019050919050565b6000819050919050565b610e26610e2182610754565b610e0b565b82525050565b600081519050919050565b600081905092915050565b60005b83811015610e60578082015181840152602081019050610e45565b60008484015250505050565b6000610e7782610e2c565b610e818185610e37565b9350610e91818560208601610e42565b80840191505092915050565b6000610ea9828a610e15565b602082019150610eb98289610e6c565b9150610ec58288610e6c565b9150610ed18287610e6c565b9150610edd8286610e6c565b9150610ee98285610e6c565b9150610ef58284610e6c565b915081905098975050505050505050565b7f50617469656e7420646f6573206e6f7420657869737400000000000000000000600082015250565b6000610f3c601683610c82565b9150610f4782610f06565b602082019050919050565b60006020820190508181036000830152610f6b81610f2f565b9050919050565b7f50617469656e7420616c72656164792065786973747300000000000000000000600082015250565b6000610fa8601683610c82565b9150610fb382610f72565b602082019050919050565b60006020820190508181036000830152610fd781610f9b565b9050919050565b6000610fea828b610e15565b602082019150610ffa828a610e15565b60208201915061100a8289610e15565b60208201915061101a8288610e15565b60208201915061102a8287610e15565b60208201915061103a8286610e15565b60208201915061104a8285610e15565b60208201915061105a8284610e15565b602082019150819050999850505050505050505056fea264697066735822122055de09758b52d7e0bf65ac8830541c4aac4791e25c3f9e64a29fc2895e9ecdb864736f6c634300081c0033",
  "linkReferences": {},
  "deployedLinkReferences": {}
}