{
  "_format": "hh-sol-artifact-1",
  "contractName": "BasicMedicalContract",
  "sourceName": "contracts/BasicMedicalContract.sol",
  "abi": [
    {
      "inputs": [],
      "stateMutability": "nonpayable",
      "type": "constructor"
    },
    {
      "inputs": [
        {
          "internalType": "uint256",
          "name": "_id",
          "type": "uint256"
        },
        {
          "internalType": "string",
          "name": "_name",
          "type": "string"
        },
        {
          "internalType": "string",
          "name": "_credentials",
          "type": "string"
        },
        {
          "internalType": "string",
          "name": "_gender",
          "type": "string"
        },
        {
          "internalType": "string",
          "name": "_hospitalName",
          "type": "string"
        },
        {
          "internalType": "string",
          "name": "_country",
          "type": "string"
        },
        {
          "internalType": "string",
          "name": "_specialty",
          "type": "string"
        }
      ],
      "name": "addDoctor",
      "outputs": [],
      "stateMutability": "nonpayable",
      "type": "function"
    },
    {
      "inputs": [
        {
          "internalType": "uint256",
          "name": "_id",
          "type": "uint256"
        },
        {
          "internalType": "uint256",
          "name": "_age",
          "type": "uint256"
        },
        {
          "internalType": "uint256",
          "name": "_highBP",
          "type": "uint256"
        },
        {
          "internalType": "uint256",
          "name": "_highChol",
          "type": "uint256"
        },
        {
          "internalType": "uint256",
          "name": "_cholCheck",
          "type": "uint256"
        },
        {
          "internalType": "uint256",
          "name": "_BMI",
          "type": "uint256"
        },
        {
          "internalType": "uint256",
          "name": "_smoker",
          "type": "uint256"
        },
        {
          "internalType": "uint256",
          "name": "_stroke",
          "type": "uint256"
        }
      ],
      "name": "addPatient",
      "outputs": [],
      "stateMutability": "nonpayable",
      "type": "function"
    },
    {
      "inputs": [],
      "name": "admin",
      "outputs": [
        {
          "internalType": "address",
          "name": "",
          "type": "address"
        }
      ],
      "stateMutability": "view",
      "type": "function"
    },
    {
      "inputs": [
        {
          "internalType": "uint256",
          "name": "doctorId",
          "type": "uint256"
        }
      ],
      "name": "deleteDoctor",
      "outputs": [],
      "stateMutability": "nonpayable",
      "type": "function"
    },
    {
      "inputs": [
        {
          "internalType": "uint256",
          "name": "patientId",
          "type": "uint256"
        }
      ],
      "name": "deletePatient",
      "outputs": [],
      "stateMutability": "nonpayable",
      "type": "function"
    },
    {
      "inputs": [],
      "name": "doctorCount",
      "outputs": [
        {
          "internalType": "uint256",
          "name": "",
          "type": "uint256"
        }
      ],
      "stateMutability": "view",
      "type": "function"
    },
    {
      "inputs": [
        {
          "internalType": "uint256",
          "name": "",
          "type": "uint256"
        }
      ],
      "name": "doctors",
      "outputs": [
        {
          "internalType": "uint256",
          "name": "id",
          "type": "uint256"
        },
        {
          "internalType": "string",
          "name": "name",
          "type": "string"
        },
        {
          "internalType": "string",
          "name": "credentials",
          "type": "string"
        },
        {
          "internalType": "string",
          "name": "gender",
          "type": "string"
        },
        {
          "internalType": "string",
          "name": "hospitalName",
          "type": "string"
        },
        {
          "internalType": "string",
          "name": "country",
          "type": "string"
        },
        {
          "internalType": "string",
          "name": "specialty",
          "type": "string"
        }
      ],
      "stateMutability": "view",
      "type": "function"
    },
    {
      "inputs": [
        {
          "internalType": "uint256",
          "name": "doctorId",
          "type": "uint256"
        }
      ],
      "name": "getDoctor",
      "outputs": [
        {
          "components": [
            {
              "internalType": "uint256",
              "name": "id",
              "type": "uint256"
            },
            {
              "internalType": "string",
              "name": "name",
              "type": "string"
            },
            {
              "internalType": "string",
              "name": "credentials",
              "type": "string"
            },
            {
              "internalType": "string",
              "name": "gender",
              "type": "string"
            },
            {
              "internalType": "string",
              "name": "hospitalName",
              "type": "string"
            },
            {
              "internalType": "string",
              "name": "country",
              "type": "string"
            },
            {
              "internalType": "string",
              "name": "specialty",
              "type": "string"
            }
          ],
          "internalType": "struct BasicMedicalContract.Doctor",
          "name": "",
          "type": "tuple"
        }
      ],
      "stateMutability": "view",
      "type": "function"
    },
    {
      "inputs": [
        {
          "internalType": "uint256",
          "name": "patientId",
          "type": "uint256"
        }
      ],
      "name": "getPatient",
      "outputs": [
        {
          "components": [
            {
              "internalType": "uint256",
              "name": "id",
              "type": "uint256"
            },
            {
              "internalType": "uint256",
              "name": "age",
              "type": "uint256"
            },
            {
              "internalType": "uint256",
              "name": "highBP",
              "type": "uint256"
            },
            {
              "internalType": "uint256",
              "name": "highChol",
              "type": "uint256"
            },
            {
              "internalType": "uint256",
              "name": "cholCheck",
              "type": "uint256"
            },
            {
              "internalType": "uint256",
              "name": "BMI",
              "type": "uint256"
            },
            {
              "internalType": "uint256",
              "name": "smoker",
              "type": "uint256"
            },
            {
              "internalType": "uint256",
              "name": "stroke",
              "type": "uint256"
            }
          ],
          "internalType": "struct BasicMedicalContract.Patient",
          "name": "",
          "type": "tuple"
        }
      ],
      "stateMutability": "view",
      "type": "function"
    },
    {
      "inputs": [
        {
          "internalType": "address",
          "name": "",
          "type": "address"
        }
      ],
      "name": "patientAddressToId",
      "outputs": [
        {
          "internalType": "uint256",
          "name": "",
          "type": "uint256"
        }
      ],
      "stateMutability": "view",
      "type": "function"
    },
    {
      "inputs": [],
      "name": "patientCount",
      "outputs": [
        {
          "internalType": "uint256",
          "name": "",
          "type": "uint256"
        }
      ],
      "stateMutability": "view",
      "type": "function"
    },
    {
      "inputs": [
        {
          "internalType": "uint256",
          "name": "",
          "type": "uint256"
        }
      ],
      "name": "patients",
      "outputs": [
        {
          "internalType": "uint256",
          "name": "id",
          "type": "uint256"
        },
        {
          "internalType": "uint256",
          "name": "age",
          "type": "uint256"
        },
        {
          "internalType": "uint256",
          "name": "highBP",
          "type": "uint256"
        },
        {
          "internalType": "uint256",
          "name": "highChol",
          "type": "uint256"
        },
        {
          "internalType": "uint256",
          "name": "cholCheck",
          "type": "uint256"
        },
        {
          "internalType": "uint256",
          "name": "BMI",
          "type": "uint256"
        },
        {
          "internalType": "uint256",
          "name": "smoker",
          "type": "uint256"
        },
        {
          "internalType": "uint256",
          "name": "stroke",
          "type": "uint256"
        }
      ],
      "stateMutability": "view",
      "type": "function"
    }
  ],
  "bytecode": "0x60a0604052348015600f57600080fd5b503373ffffffffffffffffffffffffffffffffffffffff1660808173ffffffffffffffffffffffffffffffffffffffff1681525050608051611dd4610066600039600081816103740152610f020152611dd46000f3fe608060405234801561001057600080fd5b50600436106100b45760003560e01c806378522bc41161007157806378522bc4146101a35780637d3a6796146101c157806393119a83146101f157806393e91dca14610228578063a0303c4114610244578063f851a44014610262576100b4565b80630e3e3dd3146100b9578063114db1fd146100e9578063300b84591461010557806367e574821461012157806369b0a72d1461013d5780636efb1b841461016d575b600080fd5b6100d360048036038101906100ce9190611075565b610280565b6040516100e091906110bb565b60405180910390f35b61010360048036038101906100fe9190611102565b610298565b005b61011f600480360381019061011a9190611275565b610372565b005b61013b60048036038101906101369190611102565b610551565b005b61015760048036038101906101529190611102565b610601565b604051610164919061150c565b60405180910390f35b61018760048036038101906101829190611102565b6109a4565b60405161019a9796959493929190611578565b60405180910390f35b6101ab610d16565b6040516101b891906110bb565b60405180910390f35b6101db60048036038101906101d69190611102565b610d1c565b6040516101e891906116b3565b60405180910390f35b61020b60048036038101906102069190611102565b610d99565b60405161021f9897969594939291906116cf565b60405180910390f35b610242600480360381019061023d919061174d565b610de1565b005b61024c610efa565b60405161025991906110bb565b60405180910390f35b61026a610f00565b6040516102779190611812565b60405180910390f35b60026020528060005260406000206000915090505481565b60006001600083815260200190815260200160002060000154036102f1576040517f08c379a00000000000000000000000000000000000000000000000000000000081526004016102e890611879565b60405180910390fd5b6001600082815260200190815260200160002060008082016000905560018201600061031d9190610f24565b60028201600061032d9190610f24565b60038201600061033d9190610f24565b60048201600061034d9190610f24565b60058201600061035d9190610f24565b60068201600061036d9190610f24565b505050565b7f000000000000000000000000000000000000000000000000000000000000000073ffffffffffffffffffffffffffffffffffffffff163373ffffffffffffffffffffffffffffffffffffffff1614610400576040517f08c379a00000000000000000000000000000000000000000000000000000000081526004016103f7906118e5565b60405180910390fd5b6000600160008981526020019081526020016000206000015414610459576040517f08c379a000000000000000000000000000000000000000000000000000000000815260040161045090611951565b60405180910390fd5b6004600081548092919061046c906119a0565b91905055506040518060e0016040528088815260200187815260200186815260200185815260200184815260200183815260200182815250600160008981526020019081526020016000206000820151816000015560208201518160010190816104d69190611bf4565b5060408201518160020190816104ec9190611bf4565b5060608201518160030190816105029190611bf4565b5060808201518160040190816105189190611bf4565b5060a082015181600501908161052e9190611bf4565b5060c08201518160060190816105449190611bf4565b5090505050505050505050565b600080600083815260200190815260200160002060000154036105a9576040517f08c379a00000000000000000000000000000000000000000000000000000000081526004016105a090611d12565b60405180910390fd5b6000808281526020019081526020016000206000808201600090556001820160009055600282016000905560038201600090556004820160009055600582016000905560068201600090556007820160009055505050565b610609610f64565b600160008381526020019081526020016000206040518060e00160405290816000820154815260200160018201805461064190611a17565b80601f016020809104026020016040519081016040528092919081815260200182805461066d90611a17565b80156106ba5780601f1061068f576101008083540402835291602001916106ba565b820191906000526020600020905b81548152906001019060200180831161069d57829003601f168201915b505050505081526020016002820180546106d390611a17565b80601f01602080910402602001604051908101604052809291908181526020018280546106ff90611a17565b801561074c5780601f106107215761010080835404028352916020019161074c565b820191906000526020600020905b81548152906001019060200180831161072f57829003601f168201915b5050505050815260200160038201805461076590611a17565b80601f016020809104026020016040519081016040528092919081815260200182805461079190611a17565b80156107de5780601f106107b3576101008083540402835291602001916107de565b820191906000526020600020905b8154815290600101906020018083116107c157829003601f168201915b505050505081526020016004820180546107f790611a17565b80601f016020809104026020016040519081016040528092919081815260200182805461082390611a17565b80156108705780601f1061084557610100808354040283529160200191610870565b820191906000526020600020905b81548152906001019060200180831161085357829003601f168201915b5050505050815260200160058201805461088990611a17565b80601f01602080910402602001604051908101604052809291908181526020018280546108b590611a17565b80156109025780601f106108d757610100808354040283529160200191610902565b820191906000526020600020905b8154815290600101906020018083116108e557829003601f168201915b5050505050815260200160068201805461091b90611a17565b80601f016020809104026020016040519081016040528092919081815260200182805461094790611a17565b80156109945780601f1061096957610100808354040283529160200191610994565b820191906000526020600020905b81548152906001019060200180831161097757829003601f168201915b5050505050815250509050919050565b60016020528060005260406000206000915090508060000154908060010180546109cd90611a17565b80601f01602080910402602001604051908101604052809291908181526020018280546109f990611a17565b8015610a465780601f10610a1b57610100808354040283529160200191610a46565b820191906000526020600020905b815481529060010190602001808311610a2957829003601f168201915b505050505090806002018054610a5b90611a17565b80601f0160208091040260200160405190810160405280929190818152602001828054610a8790611a17565b8015610ad45780601f10610aa957610100808354040283529160200191610ad4565b820191906000526020600020905b815481529060010190602001808311610ab757829003601f168201915b505050505090806003018054610ae990611a17565b80601f0160208091040260200160405190810160405280929190818152602001828054610b1590611a17565b8015610b625780601f10610b3757610100808354040283529160200191610b62565b820191906000526020600020905b815481529060010190602001808311610b4557829003601f168201915b505050505090806004018054610b7790611a17565b80601f0160208091040260200160405190810160405280929190818152602001828054610ba390611a17565b8015610bf05780601f10610bc557610100808354040283529160200191610bf0565b820191906000526020600020905b815481529060010190602001808311610bd357829003601f168201915b505050505090806005018054610c0590611a17565b80601f0160208091040260200160405190810160405280929190818152602001828054610c3190611a17565b8015610c7e5780601f10610c5357610100808354040283529160200191610c7e565b820191906000526020600020905b815481529060010190602001808311610c6157829003601f168201915b505050505090806006018054610c9390611a17565b80601f0160208091040260200160405190810160405280929190818152602001828054610cbf90611a17565b8015610d0c5780601f10610ce157610100808354040283529160200191610d0c565b820191906000526020600020905b815481529060010190602001808311610cef57829003601f168201915b5050505050905087565b60045481565b610d24610fa1565b60008083815260200190815260200160002060405180610100016040529081600082015481526020016001820154815260200160028201548152602001600382015481526020016004820154815260200160058201548152602001600682015481526020016007820154815250509050919050565b60006020528060005260406000206000915090508060000154908060010154908060020154908060030154908060040154908060050154908060060154908060070154905088565b60008060008a81526020019081526020016000206000015414610e39576040517f08c379a0000000000000000000000000000000000000000000000000000000008152600401610e3090611d7e565b60405180910390fd5b60036000815480929190610e4c906119a0565b9190505550604051806101000160405280898152602001888152602001878152602001868152602001858152602001848152602001838152602001828152506000808a8152602001908152602001600020600082015181600001556020820151816001015560408201518160020155606082015181600301556080820151816004015560a0820151816005015560c0820151816006015560e082015181600701559050505050505050505050565b60035481565b7f000000000000000000000000000000000000000000000000000000000000000081565b508054610f3090611a17565b6000825580601f10610f425750610f61565b601f016020900490600052602060002090810190610f609190610fe6565b5b50565b6040518060e00160405280600081526020016060815260200160608152602001606081526020016060815260200160608152602001606081525090565b60405180610100016040528060008152602001600081526020016000815260200160008152602001600081526020016000815260200160008152602001600081525090565b5b80821115610fff576000816000905550600101610fe7565b5090565b6000604051905090565b600080fd5b600080fd5b600073ffffffffffffffffffffffffffffffffffffffff82169050919050565b600061104282611017565b9050919050565b61105281611037565b811461105d57600080fd5b50565b60008135905061106f81611049565b92915050565b60006020828403121561108b5761108a61100d565b5b600061109984828501611060565b91505092915050565b6000819050919050565b6110b5816110a2565b82525050565b60006020820190506110d060008301846110ac565b92915050565b6110df816110a2565b81146110ea57600080fd5b50565b6000813590506110fc816110d6565b92915050565b6000602082840312156111185761111761100d565b5b6000611126848285016110ed565b91505092915050565b600080fd5b600080fd5b6000601f19601f8301169050919050565b7f4e487b7100000000000000000000000000000000000000000000000000000000600052604160045260246000fd5b61118282611139565b810181811067ffffffffffffffff821117156111a1576111a061114a565b5b80604052505050565b60006111b4611003565b90506111c08282611179565b919050565b600067ffffffffffffffff8211156111e0576111df61114a565b5b6111e982611139565b9050602081019050919050565b82818337600083830152505050565b6000611218611213846111c5565b6111aa565b90508281526020810184848401111561123457611233611134565b5b61123f8482856111f6565b509392505050565b600082601f83011261125c5761125b61112f565b5b813561126c848260208601611205565b91505092915050565b600080600080600080600060e0888a0312156112945761129361100d565b5b60006112a28a828b016110ed565b975050602088013567ffffffffffffffff8111156112c3576112c2611012565b5b6112cf8a828b01611247565b965050604088013567ffffffffffffffff8111156112f0576112ef611012565b5b6112fc8a828b01611247565b955050606088013567ffffffffffffffff81111561131d5761131c611012565b5b6113298a828b01611247565b945050608088013567ffffffffffffffff81111561134a57611349611012565b5b6113568a828b01611247565b93505060a088013567ffffffffffffffff81111561137757611376611012565b5b6113838a828b01611247565b92505060c088013567ffffffffffffffff8111156113a4576113a3611012565b5b6113b08a828b01611247565b91505092959891949750929550565b6113c8816110a2565b82525050565b600081519050919050565b600082825260208201905092915050565b60005b838110156114085780820151818401526020810190506113ed565b60008484015250505050565b600061141f826113ce565b61142981856113d9565b93506114398185602086016113ea565b61144281611139565b840191505092915050565b600060e08301600083015161146560008601826113bf565b506020830151848203602086015261147d8282611414565b915050604083015184820360408601526114978282611414565b915050606083015184820360608601526114b18282611414565b915050608083015184820360808601526114cb8282611414565b91505060a083015184820360a08601526114e58282611414565b91505060c083015184820360c08601526114ff8282611414565b9150508091505092915050565b60006020820190508181036000830152611526818461144d565b905092915050565b600082825260208201905092915050565b600061154a826113ce565b611554818561152e565b93506115648185602086016113ea565b61156d81611139565b840191505092915050565b600060e08201905061158d600083018a6110ac565b818103602083015261159f818961153f565b905081810360408301526115b3818861153f565b905081810360608301526115c7818761153f565b905081810360808301526115db818661153f565b905081810360a08301526115ef818561153f565b905081810360c0830152611603818461153f565b905098975050505050505050565b6101008201600082015161162860008501826113bf565b50602082015161163b60208501826113bf565b50604082015161164e60408501826113bf565b50606082015161166160608501826113bf565b50608082015161167460808501826113bf565b5060a082015161168760a08501826113bf565b5060c082015161169a60c08501826113bf565b5060e08201516116ad60e08501826113bf565b50505050565b6000610100820190506116c96000830184611611565b92915050565b6000610100820190506116e5600083018b6110ac565b6116f2602083018a6110ac565b6116ff60408301896110ac565b61170c60608301886110ac565b61171960808301876110ac565b61172660a08301866110ac565b61173360c08301856110ac565b61174060e08301846110ac565b9998505050505050505050565b600080600080600080600080610100898b03121561176e5761176d61100d565b5b600061177c8b828c016110ed565b985050602061178d8b828c016110ed565b975050604061179e8b828c016110ed565b96505060606117af8b828c016110ed565b95505060806117c08b828c016110ed565b94505060a06117d18b828c016110ed565b93505060c06117e28b828c016110ed565b92505060e06117f38b828c016110ed565b9150509295985092959890939650565b61180c81611037565b82525050565b60006020820190506118276000830184611803565b92915050565b7f446f63746f7220646f6573206e6f742065786973740000000000000000000000600082015250565b600061186360158361152e565b915061186e8261182d565b602082019050919050565b6000602082019050818103600083015261189281611856565b9050919050565b7f4e6f7420617574686f72697a6564000000000000000000000000000000000000600082015250565b60006118cf600e8361152e565b91506118da82611899565b602082019050919050565b600060208201905081810360008301526118fe816118c2565b9050919050565b7f446f63746f7220616c7265616479207265676973746572656400000000000000600082015250565b600061193b60198361152e565b915061194682611905565b602082019050919050565b6000602082019050818103600083015261196a8161192e565b9050919050565b7f4e487b7100000000000000000000000000000000000000000000000000000000600052601160045260246000fd5b60006119ab826110a2565b91507fffffffffffffffffffffffffffffffffffffffffffffffffffffffffffffffff82036119dd576119dc611971565b5b600182019050919050565b7f4e487b7100000000000000000000000000000000000000000000000000000000600052602260045260246000fd5b60006002820490506001821680611a2f57607f821691505b602082108103611a4257611a416119e8565b5b50919050565b60008190508160005260206000209050919050565b60006020601f8301049050919050565b600082821b905092915050565b600060088302611aaa7fffffffffffffffffffffffffffffffffffffffffffffffffffffffffffffffff82611a6d565b611ab48683611a6d565b95508019841693508086168417925050509392505050565b6000819050919050565b6000611af1611aec611ae7846110a2565b611acc565b6110a2565b9050919050565b6000819050919050565b611b0b83611ad6565b611b1f611b1782611af8565b848454611a7a565b825550505050565b600090565b611b34611b27565b611b3f818484611b02565b505050565b5b81811015611b6357611b58600082611b2c565b600181019050611b45565b5050565b601f821115611ba857611b7981611a48565b611b8284611a5d565b81016020851015611b91578190505b611ba5611b9d85611a5d565b830182611b44565b50505b505050565b600082821c905092915050565b6000611bcb60001984600802611bad565b1980831691505092915050565b6000611be48383611bba565b9150826002028217905092915050565b611bfd826113ce565b67ffffffffffffffff811115611c1657611c1561114a565b5b611c208254611a17565b611c2b828285611b67565b600060209050601f831160018114611c5e5760008415611c4c578287015190505b611c568582611bd8565b865550611cbe565b601f198416611c6c86611a48565b60005b82811015611c9457848901518255600182019150602085019450602081019050611c6f565b86831015611cb15784890151611cad601f891682611bba565b8355505b6001600288020188555050505b505050505050565b7f50617469656e7420646f6573206e6f7420657869737400000000000000000000600082015250565b6000611cfc60168361152e565b9150611d0782611cc6565b602082019050919050565b60006020820190508181036000830152611d2b81611cef565b9050919050565b7f50617469656e7420616c72656164792065786973747300000000000000000000600082015250565b6000611d6860168361152e565b9150611d7382611d32565b602082019050919050565b60006020820190508181036000830152611d9781611d5b565b905091905056fea26469706673582212208e7b2e6d73a6529d5931a73cc6454785a54c778d6b274d9515c8efd12404df3064736f6c634300081c0033",
  "linkReferences": {},
  "deployedLinkReferences": {}
}